:03000000020006F5
:03005F0002000399
:0300030002008870
:2000620075B0DE75A0DE7590DE7580DE75B0AD75A0AD7590AD7580AD75B00075A0007590AB
:200082000075800080FE7E017F007C007D008C8274E02DF5838C03EBF00CBC00010DC3ECFE
:2000A2009420ED6480948040E590FF02E4F074E0A3F090FF047420F0E4A3F07C007D00ECC1
:2000C2002410F582ED34FFF5838C03EBF5F0A48BF0A4FBF00CBC00010DC3EC9410ED6480D4
:2000E200948040DB7C007D00EC2420F582ED34FFF5838C03EBC454F0FB3395E0FAEC420347
:20010200ED4202EBF00CBC00010DC3EC9410ED6480948040D390FF007401F090FF01E0FD4F
:2001220070F9FCFD8C8274E02DF583E0F5800CBC00010DC3EC9420ED6480948040E690FF2C
:20014200007401F090FF01E0FD70F9FCFD8C8274E02DF583E0FB7A00B50406EAB505028028
:1C016200067E007F0080100CBC00010DC3EC9420ED6480948040D68E8002006248
:06003500E478FFF6D8FD9F
:200013007900E94400601B7A00900182780175A000E493F2A308B8000205A0D9F4DAF27510
:02003300A0FF2C
:20003B007800E84400600A790175A000E4F309D8FC7800E84400600C7900900001E4F0A3C3
:04005B00D8FCD9FAFA
:0D00060075810712017EE582600302000390
:04017E007582002264
:00000001FF
