:03000000020006F5
:03005F0002000399
:03000300020152A5
:2000620085821385831485F015740112016D2513FAE43514FBAC158A828B838CF074011291
:20008200016D751602E516FA3395E0FBA8127900C3EA98EB648089F063F08095F05052E52C
:2000A200162513F8E43514F9AC15EA24FFFEEB34FFFFEE2513FEEF3514FFAD158E828F83AA
:2000C2008DF0120188FEEA24FEFAEB34FFFBEA2513FAEB3514FBAF158A828B838FF012012E
:2000E20088FA2EFE888289838CF012016D0516809422AD82AE83AFF07C00ECFA3395E0FBE9
:20010200A8127900C3EA98EB648089F063F08095F05016EC2DF9E43EFA8F0389828A838BFC
:20012200F0120188F5800C80D12275B0DE75A0DE7590DE7580DE75B0AD75A0AD7590AD75D7
:2001420080AD75B00075A00075900075800080FE75120A90000875F04012006275120A905B
:0B016200000875F0401200F402012CB0
:06003500E478FFF6D8FD9F
:200013007900E94400601B7A009001A8780175A000E493F2A308B8000205A0D9F4DAF275EA
:02003300A0FF2C
:1B016D0020F71130F6138883A88220F509F6A8837583002280FEF280F5F02291
:20003B007800E84400600A790175A000E4F309D8FC7800E84400600C7900900001E4F0A3C3
:04005B00D8FCD9FAFA
:0D0006007581161201A4E58260030200035B
:1C01880020F71430F6148883A88220F507E6A88375830022E280F7E49322E02286
:0401A400758200223E
:00000001FF
