:03000000020006F5
:03005F0002000399
:0300030002008870
:2000620075B0DE75A0DE7590DE7580DE75B0AD75A0AD7590AD7580AD75B00075A0007590AB
:200082000075800080FE7E007F008E8274E02FF5838E05EDF00EBE00010FC3EE9420EF64DF
:2000A20080948040E590FE027400F074E0A3F090FE047400F074E1A3F090FE067420F0E4D0
:2000C200A3F090FE0004F090FE01E0FF70F9FEFF8E908E8274E12FF583E0F5800EBE0001E9
:0F00E2000FC3EE9414EF6480948040E402006238
:06003500E478FFF6D8FD9F
:200013007900E94400601B7A009000F5780175A000E493F2A308B8000205A0D9F4DAF2759E
:02003300A0FF2C
:20003B007800E84400600A790175A000E4F309D8FC7800E84400600C7900900001E4F0A3C3
:04005B00D8FCD9FAFA
:0D0006007581071200F1E58260030200031E
:0400F10075820022F2
:00000001FF
