:03000000020008F3
:0300610002000397
:0500030012008A80FEDE
:0E00640075B0DE75A0DE7590DE7580DE75B0BD
:0E007200AD75A0AD7590AD7580AD75B0007523
:08008000A000759000758000DE
:0200880080FEF8
:02008A0078807C
:0E008C00187600E870FA75D000740A780A2819
:0A009A0094146006759002020B57E3
:0200A400788062
:0E00A600187600E870FA75D000740A75640AC6
:0C00B400256494146006759003020B573D
:0200C000788046
:0E00C200187600E870FA75D000740A7864753C
:0D00D000640A2694146006759004020B5714
:0200DD00788029
:0E00DF00187600E870FA75D000740A240594B3
:0900ED000F6006759005020B5727
:0200F600788010
:0E00F800187600E870FA75D000740A780AB322
:0B0106003894156006759006020B5738
:020111007880F4
:0E011300187600E870FA75D000740A75640A58
:0D012100B3356494156006759007020B5706
:02012E007880D7
:0E013000187600E870FA75D000740A786475CD
:0E013E00640AB33694156006759008020B57DC
:02014C007880B9
:0E014E00187600E870FA75D000740AB3340514
:0A015C0094106006759009020B571D
:0201660078809F
:0D016800187600E870FA75D00021797590C6
:040175000A020B5718
:0201790078808C
:0E017B00187600E870FA75D00078FF74AA5864
:0A01890094AA600675900B020B5754
:02019300788072
:0E019500187600E870FA75D000757F0074FFD0
:0A01A300557F600675900C020B57A3
:0201AD00788058
:0E01AF00187600E870FA75D000787F757F0131
:0B01BD0074FE56600675900D020B5793
:0201C80078803D
:0E01CA00187600E870FA75D00074FF54FF94A8
:0901D800FF600675900E020B5742
:0201E100788024
:0E01E300187600E870FA75D0007532FF7400CF
:0C01F1005232E532600675900F020B5789
:0201FD00788008
:0E01FF00187600E870FA75D000751980531953
:0D020D00FFE51994806006759010020B57F4
:02021A007880EA
:0E021C00187600E870FA75D0007480B382E79F
:0A022A00947F6006759011020B57D7
:020234007880D0
:0E023600187600E870FA75D0007480B3B0E757
:0A02440094806006759012020B57BB
:02024E007880B6
:0E025000187600E870FA75D00074807564802E
:08025E00B56405747FB5640668
:06026600759013020B5716
:08026C004006759013020B57C8
:02027400788090
:0E027600187600E870FA75D0007480B4800528
:05028400747FB4800648
:06028900759014020B57F2
:08028F004006759014020B57A4
:0202970078806D
:0E029900187600E870FA75D0007980B98005FB
:0502A700797FB980061B
:0602AC00759015020B57CE
:0802B2004006759015020B5780
:0202BA0078804A
:0E02BC00187600E870FA75D0007964756480D9
:0902CA00B7800675647FB7800659
:0602D300759016020B57A6
:0802D9004006759016020B5758
:0202E100788023
:0E02E300187600E870FA75D0007480E46006AA
:0602F100759017020B5787
:0202F70078800D
:0E02F900187600E870FA75D000B3C350067591
:050307009018020B57E5
:02030C007880F7
:0E030E00187600E870FA75D0007440C2E66000
:07031C0006759019020B5752
:020323007880E0
:0E032500187600E870FA75D00074FFF46006D8
:0603330075901A020B5741
:020339007880CA
:0E033B00187600E870FA75D000B34006759091
:040349001B020B5731
:02034D007880B6
:0E034F00187600E870FA75D0007420B2E560F0
:07035D000675901C020B570E
:0203640078809F
:0E036600187600E870FA75D00074802499D4DF
:0A0374009478600675901D020B5787
:02037E00788085
:0E038000187600E870FA75D000740A1494091B
:08038E00600675901E020B577A
:0203960078806D
:0E039800187600E870FA75D000780A18E8941C
:0903A60009600675901F020B5757
:0203AF00788054
:0E03B100187600E870FA75D000757F0A157F87
:0C03BF00E57F94096006759020020B5742
:0203CB00788038
:0E03CD00187600E870FA75D000787F757F0A08
:0C03DB0016E694096006759021020B578D
:0203E70078801C
:0E03E900187600E870FA75D00074FB75F012FB
:0803F70084940D60037590224F
:0C03FF00E5F094116006759022020B5787
:02040B007880F7
:0E040D00187600E870FA75D000780AD80675E7
:05041B009023020B57C5
:060420007801D802812CD6
:06042600759023020B5744
:02042C007880D6
:0E042E00187600E870FA75D000757F0AD57F49
:07043C0006759024020B5726
:08044300757F01D57F02815194
:06044B00759024020B571E
:020451007880B1
:0E045300187600E870FA75D000740A04940B55
:080461006006759025020B579F
:02046900788099
:0E046B00187600E870FA75D000780A08E89458
:090479000B6006759026020B577A
:02048200788080
:0E048400187600E870FA75D000757F0A057FC3
:0C049200E57F940B6006759027020B5765
:02049E00788064
:0E04A000187600E870FA75D000757F0A787F34
:0C04AE0006E6940B6006759028020B57C0
:0204BA00788048
:0E04BC00187600E870FA75D0009012FFA3E5E4
:0B04CA008394136006759029020B5705
:0A04D500E5826006759029020B57BE
:0204DF00788023
:0E04E100187600E870FA75D000741020E40957
:0904EF0075902A75A001020B575B
:0804F80075A00220E50280035B
:03050000020B5794
:020503007880FE
:0E050500187600E870FA75D000740810E3064E
:0605130075902B020B574E
:08051900600675902B020B57E0
:020521007880E0
:0E052300187600E870FA75D0004003B3400669
:0605310075902C020B572F
:020537007880CA
:0E053900187600E870FA75D00074049005483A
:010547007340
:04054800A150A150CD
:04054C00A156A150C3
:0605500075902B020B5711
:020556007880AB
:0E055800187600E870FA75D000740430E203E3
:0305660030E1067B
:0605690075902E020B57F5
:02056F00788092
:0E057100187600E870FA75D000B35003B3504E
:01057F000675
:0605800075902F020B57DD
:0205860078807B
:0E058800187600E870FA75D0007004740170E7
:01059600065E
:06059700759030020B57C5
:02059D00788064
:0E059F00187600E870FA75D0007402600474DB
:0305AD00006006E5
:0605B000759031020B57AB
:0205B60078804B
:0E05B800187600E870FA75D0000205CA75903A
:0405C60033020B579A
:0205CA00788037
:0E05CC00187600E870FA75D000780AE8940AF4
:0805DA006006759034020B5716
:0205E20078801F
:0E05E400187600E870FA75D000757F0AE57F82
:0A05F200940A6006759035020B575D
:0205FC00788005
:0E05FE00187600E870FA75D000787F757F0AD5
:0B060C00E6940A6006759036020B575A
:020617007880E9
:0E061900187600E870FA75D000740A940A6032
:0706270006759037020B5726
:02062E007880D2
:0E063000187600E870FA75D000740AF8E4E855
:0A063E00940A6006759038020B570D
:020648007880B8
:0E064A00187600E870FA75D000757F0AA87F58
:0B065800E8940A6006759039020B5709
:0206630078809D
:0E066500187600E870FA75D000780AE8940A5A
:08067300600675903A020B5776
:02067B00788085
:0E067D00187600E870FA75D000740AF57FE474
:0C068B00E57F940A600675903B020B5757
:02069700788069
:0E069900187600E870FA75D000780A887FE5C0
:0B06A7007F940A600675903C020B5720
:0206B20078804E
:0E06B400187600E870FA75D000757F0A857F11
:0D06C2007EE57E940A600675903D020B57A0
:0206CF00788031
:0E06D100187600E870FA75D000757F0A787F01
:0E06DF00867EE57E940A600675903E020B57FB
:0206ED00788013
:0E06EF00187600E870FA75D000757F0AE57F76
:0A06FD00940A600675903F020B5747
:020707007880F8
:0E070900187600E870FA75D000740A787FF652
:0D071700E4E57F940A6006759040020B57E0
:020724007880DB
:0E072600187600E870FA75D000757F0A787EAC
:0E073400A67FE57E940A6006759041020B5781
:020742007880BD
:0E074400187600E870FA75D000787F760AE526
:0B0752007F940A6006759042020B576E
:02075D007880A2
:0E075F00187600E870FA75D0007401A2E04030
:07076D0006759043020B57D3
:0207740078808B
:0E077600187600E870FA75D000B392E0B394E4
:09078400016006759044020B5758
:02078D00788072
:0E078F00187600E870FA75D000901234E583F9
:0A079D0094127006E58294346006A1
:0607A700759045020B579E
:0207AD00788052
:0B07AF00187600E870FA75D000788022
:0B07BA00187600E870FA75D000788017
:0E07C500187600E870FA75D000745075F0A038
:0907D300A47006E5F09432600602
:0607DC0075904C020B5762
:0207E20078801D
:0E07E400187600E870FA75D000749078094815
:0A07F2009499600675904E020B57B3
:0207FC00788003
:0E07FE00187600E870FA75D0007409757F90C7
:0C080C00457F9499600675904F020B57D1
:020818007880E6
:0E081A00187600E870FA75D0007490787F753B
:0D0828007F064694966006759050020B57AF
:020835007880C9
:0E083700187600E870FA75D00074114422940F
:09084500336006759051020B5757
:02084E007880B0
:0E085000187600E870FA75D0007490757F0974
:0D085E00427FE4E57F949960067590520298
:02086B000B5729
:02086D00788091
:0E086F00187600E870FA75D000757F90437F10
:0D087D0009E57F94996006759053020B57B2
:02088A00788074
:0E088C00187600E870FA75D00072E0400A7429
:09089A000172E0500472E1400615
:0608A300759054020B5792
:0208A900788055
:0E08AB00187600E870FA75D0007401A0E040E5
:0908B90008A0E15004A0E0400693
:0608C200759055020B5772
:0208C800788036
:0E08CA00187600E870FA75D000900123757F53
:0E08D80008C082C083C07FE5089423700CE541
:0B08E6000994017006E50A9408600602
:0608F100759057020B5741
:0E08F700D081D064E5649423600675905602AB
:020905000B578E
:020907007880F6
:0E090900187600E870FA75D00074812394030C
:08091700600675905A020B57AF
:02091F007880DE
:0E092100187600E870FA75D0007481339401E6
:08092F00600675905B020B5796
:020937007880C6
:0E093900187600E870FA75D00074810394C03F
:08094700600675905C020B577D
:02094F007880AE
:0E095100187600E870FA75D000740313940055
:08095F00600675905D020B5764
:02096700788096
:0E096900187600E870FA75D000D3740194007F
:08097700600675905E020B574B
:02097F0078807E
:0E098100187600E870FA75D000D2E794806016
:07098F000675905F020B5793
:02099600788067
:0E099800187600E870FA75D000800675906041
:0309A600020B57EA
:0209A900788054
:0E09AB00187600E870FA75D000740A780A9881
:0809B9006006759061020B5706
:0209C10078803C
:0E09C300187600E870FA75D000740A757F0A85
:0A09D100957F6006759062020B57D7
:0209DB00788022
:0E09DD00187600E870FA75D000740A787F75FD
:0B09EB007F0A966006759063020B57B0
:0209F600788007
:0E09F800187600E870FA75D000740A940A6050
:070A060006759064020B5716
:020A0D007880EF
:0E0A0F00187600E870FA75D0007423C4943293
:080A1D006006759065020B579D
:020A25007880D7
:0E0A2700187600E870FA75D000740A7863C87B
:090A350094637005E8940A600660
:060A3E00759066020B57E3
:020A44007880B8
:0E0A4600187600E870FA75D000740A757F63A8
:0C0A5400C57F94637006E57F940A60067D
:060A6000759067020B57C0
:020A6600788096
:0E0A6800187600E870FA75D000740A787F7571
:0D0A76007F63C694637006E57F940A6006F6
:060A8300759068020B579C
:020A8900788073
:0E0A8B00187600E870FA75D0007444787F7514
:0D0A99007F55D694457006E57F94546006A5
:060AA600759069020B5778
:020AAC00788050
:0E0AAE00187600E870FA75D000743578536839
:0A0ABC009466600675906A020B57FD
:020AC600788036
:0E0AC800187600E870FA75D0007453757F350B
:0C0AD600657F9466600675906B020B57FC
:020AE20078801A
:0E0AE400187600E870FA75D0007435787F75CA
:0D0AF2007F53669466600675906C020B578A
:020AFF007880FD
:0E0B0100187600E870FA75D0007435645394CD
:090B0F0066600675906D020B573B
:020B18007880E3
:0E0B1A00187600E870FA75D0007435757F53B8
:0D0B2800627FE4E57F9466600675906E02C2
:020B35000B575C
:020B37007880C4
:0E0B3900187600E870FA75D000757F35637F7E
:0D0B470053E57F9466600675906F020B57B2
:030B540075907F1A
:030B570002006435
:06003700E478FFF6D8FD9D
:080015007900E94400601B7A48
:05001D0000900B5E786D
:030022000075A0C6
:0A00250000E493F2A308B8000205FE
:08002F00A0D9F4DAF275A0FF7C
:08003D007800E84400600A7934
:030045000075A0A3
:0600480000E4F309D8FCFE
:08004E007800E84400600C7921
:0B00560000900000E4F0A3D8FCD9FAF1
:03000800758107F8
:0A000B00120B5AE5826003020003A5
:040B5A00758200227E
:00000001FF
