:03000000020008F3
:0300610002000397
:0500030012008A80FEDE
:0E00640075B0DE75A0DE7590DE7580DE75B0BD
:0E007200AD75A0AD7590AD7580AD75B0007523
:08008000A000759000758000DE
:0200880080FEF8
:08008A0075801001920200F9DB
:0900920075801100019B0200F9C8
:0A009B00758012000001A50200F9B3
:0B00A50075801300000001B00200F99C
:0C00B0007580140000000001BC0200F983
:0D00BC00758015000000000001C90200F968
:0C00C90075801600000000000001D70246
:0200D50000F930
:0D00D7007580170000000000000001E60227
:0200E40000F921
:0D00E600758018000000000000000001F609
:0300F3000200F90F
:0300F600758019F9
:0600F9007580FF020064A7
:06003700E478FFF6D8FD9D
:080015007900E94400601B7A48
:05001D000090010378D2
:030022000075A0C6
:0A00250000E493F2A308B8000205FE
:08002F00A0D9F4DAF275A0FF7C
:08003D007800E84400600A7934
:030045000075A0A3
:0600480000E4F309D8FCFE
:08004E007800E84400600C7921
:0B00560000900000E4F0A3D8FCD9FAF1
:03000800758107F8
:0A000B001200FFE58260030200030B
:0400FF0075820022E4
:00000001FF
