:03000000020008F3
:0300610002000397
:0500030012008A80FEDE
:0E00640075B0DE75A0DE7590DE7580DE75B0BD
:0E007200AD75A0AD7590AD7580AD75B0007523
:08008000A000759000758000DE
:0200880080FEF8
:09008A00758080D340030200AC34
:09009300758081C350030200AC2A
:0B009C00758082400B758083D35005F7
:0500A7007580118003CB
:0300AC007580005C
:0300AF00020064E8
:06003700E478FFF6D8FD9D
:080015007900E94400601B7A48
:05001D00009000B67820
:030022000075A0C6
:0A00250000E493F2A308B8000205FE
:08002F00A0D9F4DAF275A0FF7C
:08003D007800E84400600A7934
:030045000075A0A3
:0600480000E4F309D8FCFE
:08004E007800E84400600C7921
:0B00560000900000E4F0A3D8FCD9FAF1
:03000800758107F8
:0A000B001200B2E582600302000358
:0400B2007582002231
:00000001FF
