:03000000020006F5
:03005F0002000399
:0300030002008870
:2000620075B0DE75A0DE7590DE7580DE75B0AD75A0AD7590AD7580AD75B00075A0007590AB
:200082000075800080FE9000007401F07E017F00EE2400FCEF3400FDEE24FFFAEF34FFFBA2
:2000A200EA2400F582EB3400F583E0FB0B8C828D83EBF00EBE00010F74F82F50D39007FF13
:0600C200E0F5800200627F
:06003500E478FFF6D8FD9F
:200013007900E94400601B7A009000CC780075A008E493F2A308B8000205A0D9F4DAF275C0
:02003300A0FF2C
:20003B007800E84400600A790075A000E4F309D8FC7800E84408600C7908900000E4F0A3B5
:04005B00D8FCD9FAFA
:0D0006007581071200C8E582600302000347
:0400C800758200221B
:00000001FF
