:03000000020006F5
:03005F0002000399
:0300030002008870
:2000620075B0DE75A0DE7590DE7580DE75B0AD75A0AD7590AD7580AD75B00075A0007590AB
:200082000075800080FE00900800E0FFBF01F8900802E0F5809008037408F09008017401B8
:0400A200F002006206
:06003500E478FFF6D8FD9F
:200013007900E94400601B7A009000AA780175A000E493F2A308B8000205A0D9F4DAF275E9
:02003300A0FF2C
:20003B007800E84400600A790175A000E4F309D8FC7800E84400600C7900900001E4F0A3C3
:04005B00D8FCD9FAFA
:0D0006007581071200A6E582600302000369
:0400A600758200223D
:00000001FF
