:03000000020006F5
:03005F0002000399
:0300030002008870
:2000620075B0DE75A0DE7590DE7580DE75B0AD75A0AD7590AD7580AD75B00075A0007590AB
:200082000075800080FE90FF817401F0900800E4F090FFA104F09008027405F090080074D7
:2000A20001F00000000000000000000000000000000000000000000000000000000000004D
:0C00C200000000900803E0F580020062DE
:06003500E478FFF6D8FD9F
:200013007900E94400601B7A009000D2780175A000E493F2A308B8000205A0D9F4DAF275C1
:02003300A0FF2C
:20003B007800E84400600A790175A000E4F309D8FC7800E84400600C7900900001E4F0A3C3
:04005B00D8FCD9FAFA
:0D0006007581071200CEE582600302000341
:0400CE007582002215
:00000001FF
